:020000040000FA
:100000000C9462000C948A000C948A000C948A0070
:100010000C948A000C948A000C948A000C948A0038
:100020000C948A000C948A000C948A000C94970516
:100030000C948A000C948A000C948A000C948A0018
:100040000C94F5040C948A000C9465050C943F05FF
:100050000C948A000C948A000C948A000C948A00F8
:100060000C948A000C948A000000000024002700F1
:100070002A0000000000250028002B0000000000DE
:1000800023002600290004040404040404040202DA
:100090000202020203030303030301020408102007
:1000A0004080010204081020010204081020000012
:1000B0000008000201000003040700000000000027
:1000C0000000530611241FBECFEFD8E0DEBFCDBF26
:1000D00011E0A0E0B1E0E4E8F8E102C005900D9283
:1000E000AC36B107D9F722E0ACE6B1E001C01D9211
:1000F000A835B207E1F710E0C2E6D0E004C02197CE
:10010000FE010E943A0CC136D107C9F70E94DD06F4
:100110000C94400C0C9400008F929F92AF92BF926F
:10012000FF920F931F93CF93DF93F0903D022BE04C
:100130002F1508F44CC020913F0208E512E0021B85
:10014000110927FD1395000F111F000F111F20919A
:100150003E02C8E8D0E0C21BD10927FDD395CC0FE1
:10016000DD1FCC0FDD1F4E010D2E000CAA08BB08B1
:100170009801012E000C440B550B281939094A0926
:100180005B09DC010E94B90924EB30E040E050E05B
:100190000E948F09820E931EA41EB51E8C169D060A
:1001A0002CF0E801801691060CF4E4012297CC0FA4
:1001B000DD1F2FB7F8948F2D90E0FC01EE0FFF1F8D
:1001C000E80FF91FE85EFD4FD283C1832FBFDF9197
:1001D000CF911F910F91FF90BF90AF909F908F9004
:1001E0000895833081F028F4813099F08230A9F0AD
:1001F00008958730A9F08830C9F08430B1F4809137
:1002000080008F7D03C0809180008F778093800075
:10021000089584B58F7784BD089584B58F7DFBCF15
:100220008091B0008F778093B00008958091B000E6
:100230008F7DF9CFCF93DF93E0EBF0E08491ECE991
:10024000F0E0D491E8E8F0E0C491CC23A1F0811172
:100250000E94F100EC2FF0E0EE0FFF1FE458FF4F7B
:10026000A591B491EC91ED2381E090E009F480E058
:10027000DF91CF91089580E090E0FACF1F93CF9364
:10028000DF93282F30E0F901E255FF4F8491F90107
:10029000E656FF4FD491F901EA57FF4FC491CC23A2
:1002A000A9F0162F81110E94F100EC2FF0E0EE0F63
:1002B000FF1FEE58FF4FA591B4918FB7F894EC91C2
:1002C000111108C0D095DE23DC938FBFDF91CF9151
:1002D0001F910895DE2BF8CFCF93DF9390E0FC01C0
:1002E000E656FF4F24918A579F4FFC018491882343
:1002F000C9F090E0880F991FFC01E859FF4FA591C4
:10030000B491FC01EE58FF4FC591D49161110DC01D
:100310009FB7F8948C91209582238C938881282311
:1003200028839FBFDF91CF910895623051F49FB72A
:10033000F8943C91822F809583238C93E8812E2B17
:10034000EFCF8FB7F894EC912E2B2C938FBFEACF81
:100350008E50806480937C0080917A0080648093CA
:100360007A0080917A0086FDFCCF80917800909190
:10037000790008953FB7F8948091770190917801C2
:10038000A0917901B0917A0126B5A89B05C02F3FB5
:1003900019F00196A11DB11D3FBFBA2FA92F982FAB
:1003A0008827BC01CD01620F711D811D911D42E0A6
:1003B000660F771F881F991F4A95D1F708958F926E
:1003C0009F92AF92BF92CF92DF92EF92FF924B013A
:1003D0005C010E94BA016B017C010E94BA016C1998
:1003E0007D098E099F09683E734081059105A8F338
:1003F00021E0821A9108A108B10888EEC80E83E0B6
:10040000D81EE11CF11C81149104A104B10429F748
:10041000FF90EF90DF90CF90BF90AF909F908F9024
:100420000895AF92BF92CF92DF92EF92FF920F9317
:100430001F93CF93DF936C017B018B01040F151F7A
:10044000EB015E01AE18BF08C017D10759F06991E2
:10045000D601ED91FC910190F081E02DC601099546
:10046000892B79F7C501DF91CF911F910F91FF90F3
:10047000EF90DF90CF90BF90AF900895FC01538D27
:10048000448D252F30E0842F90E0821B930B54176E
:1004900010F0CF96089501970895FC01918D828DFB
:1004A000981761F0A28DAE0FBF2FB11D5D968C9194
:1004B000928D9F5F9F73928F90E008958FEF9FEFD3
:1004C0000895FC01918D828D981731F0828DE80F8F
:1004D000F11D858D90E008958FEF9FEF0895FC0149
:1004E000918D228D892F90E0805C9F4F821B910916
:1004F0008F73992708958BE791E00E946F0221E0A6
:10050000892B09F420E0822F089580E090E0892B68
:1005100029F00E947B0281110C9400000895FC01D7
:10052000A48DA80FB92FB11DA35ABF4F2C91848D54
:1005300090E001968F739927848FA689B7892C93B1
:10054000A089B1898C91837080648C93938D848D04
:10055000981306C00288F389E02D80818F7D808307
:100560000895EF92FF920F931F93CF93DF93EC01C7
:1005700081E0888F9B8D8C8D98131AC0E889F9894A
:10058000808185FF15C09FB7F894EE89FF8960834D
:10059000E889F98980818370806480839FBF81E0CE
:1005A00090E0DF91CF911F910F91FF90EF90089510
:1005B000F62E0B8D10E00F5F1F4F0F731127E02EEB
:1005C0008C8D8E110CC00FB607FCFACFE889F98923
:1005D000808185FFF5CFCE010E948F02F1CFEB8D98
:1005E000EC0FFD2FF11DE35AFF4FF0829FB7F894F7
:1005F0000B8FEA89FB8980818062CFCFCF93DF9315
:10060000EC01888D8823B9F0AA89BB89E889F9892A
:100610008C9185FD03C0808186FD0DC00FB607FC5F
:10062000F7CF8C9185FFF2CF808185FFEDCFCE0192
:100630000E948F02E9CFDF91CF910895089590E055
:1006400080E00895FC0101900020E9F73197AF01A7
:10065000481B590BBC0180E492E00C9411028F926C
:100660009F92AF92BF920F931F93CF93DF93CDB71B
:10067000DEB7A1970FB6F894DEBF0FBECDBF19A2AB
:10068000423008F44AE08E010F5D1F4F842E912CFA
:10069000B12CA12CA50194010E94C109E62FB9013A
:1006A000CA01EA30F4F4E05DD801EE938D01232B0A
:1006B000242B252B79F790E080E0109719F0CD01DD
:1006C0000E942203A1960FB6F894DEBF0FBECDBFE5
:1006D000DF91CF911F910F91BF90AF909F908F901E
:1006E0000895E95CE1CFCF93DF93EC0160E08E8168
:1006F0000E943E0161E08E810E943E0160E08E8199
:100700000E943E018BE891E00197F1F7DF91CF91D4
:100710000895CF92DF92EF92FF920F931F93CF93A2
:10072000DF936C017C0187E0E80EF11CD0E0C0E0B3
:10073000062F10E0B8010C2E02C0759567950A943B
:10074000E2F76170F70181917F010E943E012196DD
:10075000C430D10579F7C601DF91CF911F910F9178
:10076000FF90EF90DF90CF900C947303CF92DF92C5
:10077000EF92FF920F931F93CF93DF93EC01F62E2E
:10078000642F8C810E943E018D818F3F19F060E0C3
:100790000E943E010F2D10E08F8584FF25C06E0161
:1007A00087E0C80ED11CF12CE12CB8010E2C02C040
:1007B000759567950A94E2F76170F60181916F0172
:1007C0000E943E01FFEFEF1AFF0A88E0E816F104ED
:1007D00061F7CE01DF91CF911F910F91FF90EF90C4
:1007E000DF90CF900C947303B80184E07595679502
:1007F0008A95E1F7CE010E9489036F2DCE01DF912A
:10080000CF911F910F91FF90EF90DF90CF900C94BC
:10081000890340E0682F80E492E00C94B60381E005
:100820000E9409048BE39FE10197F1F70895CF93AC
:10083000DF93823029F490914F02986090934F0299
:10084000809353021092540280E48093550280E119
:100850008093560280E58093570261E080914402C4
:100860000E946C01809145028F3F19F061E00E9467
:100870006C0161E0809146020E946C01C0E4D2E00C
:100880009E012054324080914F0284FD0BC084E0D1
:1008900090E021962817390744F461E08E810E9488
:1008A0006C01EECF88E090E0F4CF8BE39DE0019700
:1008B000F1F760E0809144020E943E0160E0809187
:1008C00046020E943E01809145028F3F19F060E090
:1008D0000E943E0180914F0284FD34C063E080E4B9
:1008E00092E00E948903CBE4D6E4CE010197F1F7B0
:1008F00063E080E492E00E9489032197F1F763E0CE
:1009000080E492E00E94890383E592E00197F1F789
:1009100062E080E492E00E94890380914F0280624D
:100920000E94090484E0809350028CE00E94090434
:100930000E940F0482E08093510286E0DF91CF9104
:100940000C94090480620E9409048BE496E40197E8
:10095000F1F780914F0280620E94090483E592E0E2
:100960000197F1F780914F0280620E940904D5CF70
:1009700090915302891710F08FEF890FE82FF0E064
:10098000E05CFD4F848980680C94090441E00E947A
:10099000B60381E090E00895CF92DF92EF92FF924C
:1009A0006C01990FEE08FF08F7FE16C041E06DE2FA
:1009B00080E492E00E94B60366277727CB016C198A
:1009C0007D098E099F094AE00E942F030196FF903E
:1009D000EF90DF90CF9008954AE0C701B601FF90F5
:1009E000EF90DF90CF900C942F031F920F920FB6D1
:1009F0000F9211242F933F938F939F93AF93BF93A5
:100A00008091730190917401A0917501B09176016C
:100A10003091720123E0230F2D3758F50196A11D67
:100A2000B11D209372018093730190937401A09380
:100A30007501B09376018091770190917801A09132
:100A40007901B0917A010196A11DB11D80937701C2
:100A500090937801A0937901B0937A01BF91AF91FF
:100A60009F918F913F912F910F900FBE0F901F90EC
:100A7000189526E8230F0296A11DB11DD2CF1F9213
:100A80000F920FB60F9211242F933F934F935F93C2
:100A90006F937F938F939F93AF93BF93EF93FF9346
:100AA0008BE791E00E948F02FF91EF91BF91AF9190
:100AB0009F918F917F916F915F914F913F912F9176
:100AC0000F900FBE0F901F9018951F920F920FB6A8
:100AD0000F9211242F938F939F93EF93FF93E091A5
:100AE0008B01F0918C018081E0919101F091920154
:100AF00082FD1BC09081809194018F5F8F73209144
:100B00009501821741F0E0919401F0E0E558FE4F25
:100B1000958F80939401FF91EF919F918F912F91E9
:100B20000F900FBE0F901F9018958081F4CF1F92E9
:100B30000F920FB60F9211242F933F934F935F9311
:100B40006F937F938F939F93AF93BF93CF93DF93D5
:100B5000EF93FF9380916C01C0913C02D0E087FF3E
:100B600024C0109285001092840080916C018F5FE8
:100B700080936C0180916C01082E000C990B8C17EE
:100B80009D0724F480916C018C30C4F18091840025
:100B900090918500049680349C4908F47AC0809135
:100BA000840090918500049676C080916C01082E97
:100BB000000C990B8C179D07C4F6E0916C018E2FE9
:100BC000EE0F990BFC01EE0FFF1FE80FF91FE85E17
:100BD000FD4F808186FFC9CFE0916C018E2FEE0F13
:100BE000990BFC01EE0FFF1FE80FF91FE85EFD4FA8
:100BF000808160E08F730E943E01B7CF2091840016
:100C000030918500E0916C018E2FEE0F990BFC0165
:100C1000EE0FFF1FE80FF91FE85EFD4F8181928103
:100C2000820F931F9093890080938800E0916C015C
:100C30008E2FEE0F990BFC01EE0FFF1FE80FF91F2F
:100C4000E85EFD4F808186FF11C0E0916C018E2F20
:100C5000EE0F990BFC01EE0FFF1FE80FF91FE85E86
:100C6000FD4F808161E08F730E943E01FF91EF9103
:100C7000DF91CF91BF91AF919F918F917F916F91B4
:100C80005F914F913F912F910F900FBE0F901F904A
:100C9000189580E49CE990938900809388008FEFF9
:100CA00080936C01E3CFCF9310927E0110927D016F
:100CB00088EE93E0A0E0B0E080937F019093800104
:100CC000A0938101B093820188E091E090937C0130
:100CD00080937B0185EC90E090938801809387015D
:100CE00084EC90E090938A018093890180EC90E0FD
:100CF00090938C0180938B0181EC90E090938E0116
:100D000080938D0182EC90E09093900180938F010D
:100D100086EC90E09093920180939101109294015F
:100D20001092950110929601109297011092430231
:100D3000109242028AE191E0909341028093400236
:100D400087E080934402CFEFC093450288E0809310
:100D5000460289E0809347028AE0809348028BE054
:100D6000809349028CE080934A0210924B021092C9
:100D70004C0210924D0210924E0210924F0281E0EE
:100D80000E94170480913C028C30A0F491E0980FEF
:100D900090933C0280933D0290E0FC01EE0FFF1F18
:100DA000E80FF91FE85EFD4F88EB9BE0928381839B
:100DB000CF910895C0933D02FBCF789484B58260B3
:100DC00084BD84B5816084BD85B5826085BD85B5EF
:100DD000816085BD80916E00816080936E0010926D
:100DE00081008091810082608093810080918100E8
:100DF0008160809381008091800081608093800079
:100E00008091B10084608093B1008091B0008160D6
:100E10008093B00080917A00846080937A00809102
:100E20007A00826080937A0080917A00816080935A
:100E30007A0080917A00806880937A001092C100D5
:100E400082E00E94170480913D028C3008F051C06E
:100E500061E083E00E946C0180913D02282F30E028
:100E6000F901EE0FFF1FE20FF31FE85EFD4F9081C7
:100E7000907C9360908310923E0210923F022CE08F
:100E8000622F0E942E0C829FB001112430E020E0DE
:100E9000AB01420F531FFA01EE0FFF1FE40FF51FC6
:100EA000E85EFD4F908196FD16C02F5F3F4F2C30BE
:100EB000310571F781110FC01092800082E080939C
:100EC00081001092850010928400B19A80916F0089
:100ED000826080936F00E0913D028E2F90E0FC01D4
:100EE000EE0FFF1FE80FF91FE85EFD4F8081806461
:100EF000808360E08EE00E946C0160E08FE00E94E1
:100F00006C0162E082E00E946C0161E08DE00E9471
:100F10006C0161E084E00E946C0161E085E00E9468
:100F20006C0161E086E00E946C0161E081E00E945A
:100F30006C01E0918B01F0918C0182E08083E09163
:100F40008701F09188011082E0918901F0918A0176
:100F50008FEC808310929301E0918F01F0919001CA
:100F600086E08083E0918D01F0918E018081806127
:100F70008083E0918D01F0918E0180818860808373
:100F8000E0918D01F0918E01808180688083E091F5
:100F90008D01F0918E0180818F7D808380E00E94A1
:100FA000B80482E291E00E942203C9E1D0E083E22A
:100FB000282E312C94E1892E912C0EE110E02FE0A7
:100FC000A22EB12C80917101811171C08EE00E941E
:100FD000A801811522E092070CF054C0B0920301E1
:100FE000A0920201D0930101C093000181E00E9410
:100FF000B80481E391E00E94220380910201909164
:1010000003010E94CC0486E391E00E9422038091B8
:101010000001909101010E94CC040E941A01892BC9
:10102000F1F462E370E080E090E00E94DF010E9452
:101030001A01892BA1F40E940F0480E00E94B804D9
:101040008DE391E00E94220368EE73E080E090E07F
:101050000E94DF010E940F0481E08093710164E629
:1010600070E080E090E00E94DF0180E090E0892B5A
:1010700009F4A8CF0E947B02882309F4A3CF0E9421
:101080000000A0CF811594404CF49092030180920F
:1010900002011093010100930001A8CFD093030136
:1010A000C093020130920101209200019FCF8FE096
:1010B0000E94A801BC01990F880B990B0E94070B95
:1010C00020E030EC4FE754E40E94640A20E030E076
:1010D00040EA50E40E94BC0B20E030E048EC52E4CF
:1010E0000E94BC0B60936D0170936E0180936F0141
:1010F0009093700180E00E94B80488E491E00E941F
:10110000220381E00E94B80485E591E00E94220359
:10111000C0906D01D0906E01E0906F01F090700171
:10112000A7019601C701B6010E94290C882309F482
:101130003EC08CE591E00E94220388E691E00E9487
:101140002203C0906D01D0906E01E0906F01F0908D
:1011500070016091020170910301072E000C880B51
:10116000990B0E94070BA70196010E94B70B181656
:101170000CF095C060E084E00E943E0160E085E0F4
:101180000E943E0161E086E00E943E0160E081E055
:101190000E943E0160E08DE00E943E0190E080E010
:1011A0000E948C0068EE73E080E090E05CCF260146
:1011B0003701E89477F82FEF3FEF4FE75FE7C30180
:1011C000B2010E94290C81110DC02FEF3FEF4FE7B4
:1011D0005FE7C301B2010E945F0A18161CF480E6A3
:1011E00091E0A9CF2FEF3FEF4FE75FE4C701B601D2
:1011F0000E94B70B18161CF484E691E09CCF2FEFE9
:101200003FEF4FE75FECC701B6010E945F0A87FD21
:10121000F3CF20E030E0A901C701B6010E945F0AC8
:1012200087FF0AC041E06DE280E492E00E94B603CD
:10123000F7FAF094F7F8F0942DEC3CEC4CE45DE315
:10124000C701B6010E94F3092B013C010E94D60A96
:101250006B017C010E94050B9B01AC01C301B20133
:101260000E94F2092B013C014AE0C701B6010E942D
:101270002F0341E06EE280E492E00E94B60320E09A
:1012800030E040E251E4C301B2010E94BC0B0E9475
:10129000D60A90E080E04AE00E942F034ECF609192
:1012A000000170910101072E000C880B990B0E9420
:1012B000070B9B01AC01C701B6010E945F0A18161B
:1012C000BCF060E084E00E943E0161E085E00E94A5
:1012D0003E0160E086E00E943E0160E081E00E9405
:1012E0003E0160E08DE00E943E018AE590E058CF2B
:1012F00061E084E00E943E0160E085E00E943E01E2
:1013000060E086E00E943E0161E081E00E943E01D3
:1013100061E08DE00E943E0184EB90E041CF052E1C
:1013200097FB1EF400940E94A60957FD07D00E9467
:10133000C10907FC03D04EF40C94A60950954095C2
:10134000309521953F4F4F4F5F4F08959095809571
:10135000709561957F4F8F4F9F4F08950E94E309CD
:10136000A59F900DB49F900DA49F800D911D1124F9
:101370000895B7FF0C94AE090E94AE09821B930B2F
:101380000895A1E21A2EAA1BBB1BFD010DC0AA1FC6
:10139000BB1FEE1FFF1FA217B307E407F50720F0DE
:1013A000A21BB30BE40BF50B661F771F881F991F59
:1013B0001A9469F760957095809590959B01AC01A2
:1013C000BD01CF010895A29FB001B39FC001A39FAB
:1013D000700D811D1124911DB29F700D811D11246E
:1013E000911D08955058BB27AA270E940A0A0C9401
:1013F0007D0B0E946F0B38F00E94760B20F039F4C1
:101400009F3F19F426F40C946C0B0EF4E095E7FB67
:101410000C94660BE92F0E948E0B58F3BA176207E3
:1014200073078407950720F079F4A6F50C94B00BA8
:101430000EF4E0950B2EBA2FA02D0B01B9019001EF
:101440000C01CA01A0011124FF27591B99F0593F33
:1014500050F4503E68F11A16F040A22F232F342F7B
:101460004427585FF3CF469537952795A795F040C9
:101470005395C9F77EF41F16BA0B620B730B840BDE
:10148000BAF09150A1F0FF0FBB1F661F771F881F96
:10149000C2F70EC0BA0F621F731F841F48F48795EE
:1014A00077956795B795F7959E3F08F0B0CF9395E0
:1014B000880F08F09927EE0F9795879508950E9459
:1014C000420B08F481E008950E94780A0C947D0B89
:1014D0000E94760B58F00E946F0B40F029F45F3F9A
:1014E00029F00C94660B51110C94B10B0C946C0BFD
:1014F0000E948E0B68F39923B1F3552391F3951B4A
:10150000550BBB27AA2762177307840738F09F5F24
:101510005F4F220F331F441FAA1FA9F335D00E2E91
:101520003AF0E0E832D091505040E695001CCAF7FE
:101530002BD0FE2F29D0660F771F881FBB1F2617C1
:1015400037074807AB07B0E809F0BB0B802DBF0198
:10155000FF2793585F4F3AF09E3F510578F00C9467
:10156000660B0C94B10B5F3FE4F3983ED4F3869581
:1015700077956795B795F7959F5FC9F7880F911D88
:101580009695879597F90895E1E0660F771F881F74
:10159000BB1F621773078407BA0720F0621B730B27
:1015A000840BBA0BEE1F88F7E09508950E94960B06
:1015B00088F09F5798F0B92F9927B751B0F0E1F014
:1015C000660F771F881F991F1AF0BA95C9F714C0C4
:1015D000B13091F00E94B00BB1E008950C94B00BC3
:1015E000672F782F8827B85F39F0B93FCCF38695FD
:1015F00077956795B395D9F73EF49095809570955A
:1016000061957F4F8F4F9F4F0895E89409C097FBD6
:101610003EF490958095709561957F4F8F4F9F4FC9
:101620009923A9F0F92F96E9BB279395F69587950D
:1016300077956795B795F111F8CFFAF4BB0F11F4D0
:1016400060FF1BC06F5F7F4F8F4F9F4F16C0882377
:1016500011F096E911C0772321F09EE8872F762FAD
:1016600005C0662371F096E8862F70E060E02AF0EE
:101670009A95660F771F881FDAF7880F96958795DA
:1016800097F90895990F0008550FAA0BE0E8FEEFAF
:1016900016161706E807F907C0F012161306E40736
:1016A000F50798F0621B730B840B950B39F40A262F
:1016B00061F0232B242B252B21F408950A2609F40D
:1016C000A140A6958FEF811D811D089597F99F6711
:1016D00080E870E060E008959FEF80EC08950024BA
:1016E0000A941616170618060906089500240A9487
:1016F00012161306140605060895092E0394000C0D
:1017000011F4882352F0BB0F40F4BF2B11F460FF9B
:1017100004C06F5F7F4F8F4F9F4F089557FD9058C4
:10172000440F551F59F05F3F71F04795880F97FBA5
:10173000991F61F09F3F79F087950895121613065F
:101740001406551FF2CF4695F1DF08C0161617068E
:101750001806991FF1CF86957105610508940895C3
:10176000E894BB2766277727CB0197F908950E9455
:10177000420B08F48FEF08950E94CF0B0C947D0B61
:101780000E946F0B38F00E94760B20F0952311F029
:101790000C94660B0C946C0B11240C94B10B0E94EE
:1017A0008E0B70F3959FC1F3950F50E0551F629F0C
:1017B000F001729FBB27F00DB11D639FAA27F00DAA
:1017C000B11DAA1F649F6627B00DA11D661F829FD1
:1017D0002227B00DA11D621F739FB00DA11D621FB6
:1017E000839FA00D611D221F749F3327A00D611DD3
:1017F000231F849F600D211D822F762F6A2F1124B5
:101800009F5750409AF0F1F088234AF0EE0FFF1FE7
:10181000BB1F661F771F881F91505040A9F79E3F3E
:10182000510580F00C94660B0C94B10B5F3FE4F310
:10183000983ED4F3869577956795B795F795E79594
:101840009F5FC1F7FE2B880F911D9695879597F99D
:1018500008950E94420B880B990B0895991B79E01B
:1018600004C0991F961708F0961B881F7A95C9F730
:1018700080950895EE0FFF1F0590F491E02D0994D7
:10188000F894FFCF1E00140000000000B102110206
:101890003E02FE026F024D02610200000000C6041B
:1018A00011021F031E035365742054656D7020528E
:1018B000616E6765004C6F773A0020486967683A47
:1018C00000536574757020446F6E650054656D70CB
:1018D000204D6F6E69746F720054656D703A200010
:1018E0006E616E00696E66006F76660020430000D0
:107E0000112484B714BE81FFF0D085E080938100F7
:107E100082E08093C00088E18093C10086E0809377
:107E2000C20080E18093C4008EE0C9D0259A86E02C
:107E300020E33CEF91E0309385002093840096BBD3
:107E4000B09BFECF1D9AA8958150A9F7CC24DD24C4
:107E500088248394B5E0AB2EA1E19A2EF3E0BF2EE7
:107E6000A2D0813461F49FD0082FAFD0023811F036
:107E7000013811F484E001C083E08DD089C08234E0
:107E800011F484E103C0853419F485E0A6D080C0E4
:107E9000853579F488D0E82EFF2485D0082F10E0AE
:107EA000102F00270E291F29000F111F8ED06801E7
:107EB0006FC0863521F484E090D080E0DECF843638
:107EC00009F040C070D06FD0082F6DD080E0C81688
:107ED00080E7D80618F4F601B7BEE895C0E0D1E017
:107EE00062D089930C17E1F7F0E0CF16F0E7DF06D8
:107EF00018F0F601B7BEE89568D007B600FCFDCFD4
:107F0000A601A0E0B1E02C9130E011968C91119780
:107F100090E0982F8827822B932B1296FA010C0160
:107F200087BEE89511244E5F5F4FF1E0A038BF0790
:107F300051F7F601A7BEE89507B600FCFDCF97BE46
:107F4000E89526C08437B1F42ED02DD0F82E2BD052
:107F50003CD0F601EF2C8F010F5F1F4F84911BD097
:107F6000EA94F801C1F70894C11CD11CFA94CF0C13
:107F7000D11C0EC0853739F428D08EE10CD085E9AC
:107F80000AD08FE07ACF813511F488E018D01DD067
:107F900080E101D065CF982F8091C00085FFFCCF94
:107FA0009093C60008958091C00087FFFCCF809118
:107FB000C00084FD01C0A8958091C6000895E0E648
:107FC000F0E098E1908380830895EDDF803219F02E
:107FD00088E0F5DFFFCF84E1DECF1F93182FE3DFCA
:107FE0001150E9F7F2DF1F91089580E0E8DFEE27F6
:047FF000FF270994CA
:027FFE00040479
:00000001FF
